:100000000C949B000C94CC000C94CC000C94CC0071
:100010000C94CC000C94CC000C94CC000C94CC0030
:100020000C94CC000C94CC000C94CC000C94CC0020
:100030000C94CC000C94CC000C94CC000C94CC0010
:100040000C94CC000C94D40C0C94CC000C94CC00EC
:100050000C94CC000C94CC000C94CC000C94CC00F0
:100060000C94CC000C94CC000C94CC000C94CC00E0
:100070000C94CC000C94CC000C94CC000C94CC00D0
:100080000C94CC000C94CC000C94CC000C94CC00C0
:100090000C94CC000C94CC000C94CC000C94CC00B0
:1000A0000C94CC000C94CC000C94CC000C94CC00A0
:1000B0000C94CC000C94CC000C94CC000C94BA1092
:1000C0000C94CC000C94CC000C94CC000C94CC0080
:1000D0000C94CC000C94CC000C94CC000C94CC0070
:1000E0000C94CC000C949E040C94B7060C94BD0B9D
:1000F0000C9451040C9403060C94EE040C943405F7
:100100000C948C050C94CD0B0C94C70B0C94BF0B6A
:100110000C94D30B0C94C10B0C946E050C945B07E0
:100120000C94E5050C9483040C945C060C94A20BCF
:100130000C9413075B0711241FBECFEFD1E2DEBF83
:10014000CDBF00E00CBF12E0A0E0B2E0E0E0FEE2D4
:1001500000E00BBF02C007900D92A835B107D9F798
:1001600023E0A8E5B2E001C01D92AE30B207E1F78E
:1001700010E0CBE9D0E000E006C021970109802F14
:10018000FE010E946814CA39D10780E00807A9F768
:100190000E9450110C94FE160C9400006F927F92F6
:1001A0008F929F92AF92BF92CF92DF92EF92FF9287
:1001B0000F931F93CF93DF93C0E1D7E20F2EF8E7A1
:1001C000EF2EF2E0FF2EF02D09E011E00F2EF0EC03
:1001D000AF2EB12CF02D0F2EF6EC8F2E912CF02D92
:1001E0000F2EF8ECCF2ED12CF02D0F2EFEEC6F2E13
:1001F000712CF02D04C01C161D060CF05BC0809104
:100200007702882311F180915802882331F0F70199
:100210008081833011F08C3051F4F701808190E0BF
:100220002091D1023091D202281739071CF4109284
:1002300077020BC0880F991FFC01ED52FD4F019012
:10024000F081E02D1995811102C0219706C08130FF
:1002500011F4259702C0CC52D140F801808181FF72
:1002600014C0F6018081882334F680917702F3016F
:100270009081E82FF0E0E858FD4F9083873108F037
:10028000BACF8F5F80937702B6CFF5018081882344
:100290000CF0B1CF80917702F4019081E82FF0E06B
:1002A000E858FD4F9083873108F0A5CF8F5F80938A
:1002B0007702A1CFDF91CF911F910F91FF90EF9027
:1002C000DF90CF90BF90AF909F908F907F906F9076
:1002D00008951092C50030E13093C400E0ECF0E0E6
:1002E00080818260808326E02093C20098E1909311
:1002F000C1001092CD003093CC00E8ECF0E080819A
:10030000826080832093CA009093C9000895E3ED32
:10031000F2E083E894E0918380838EE994E0938314
:10032000828381E594E09583848384E395E09783D9
:100330008683918780878EEE94E0938782878EE60E
:1003400095E0958784878CE895E09787868785EE8A
:1003500095E0918B808B83E096E0938B828B8CE58C
:1003600096E0958B848B87EB96E0978B868B82EA61
:100370009BE0918F808F83E197E0938F828F8DE058
:1003800090E09093D2028093D102E3ECF2E08DEB07
:100390009BE0938382838FEB9BE09583848381EC46
:1003A0009BE09783868387EC9BE0918780878DEC29
:1003B0009BE09387828783ED9BE0958784870E94EB
:1003C00069010E94570C0895CF93DF93382F209135
:1003D0000901822F827021FF1EC0A32FB92F30E0A8
:1003E00080E090E0E8ECF0E0CEECD0E0AC014756E5
:1003F000554C208122234CF001964817590759F19A
:10040000813325E79207A8F328C028813F5F2D9309
:10041000323061F724C0A32FB92F60E020E030E034
:10042000E0ECF0E0C6ECD0E0A9014756554C9081D5
:10043000992354F02F5F3F4F4217530789F0213320
:1004400095E73907A0F30CC098816F5F9D936230E8
:1004500059F782E005C080E003C080E001C082E07F
:10046000DF91CF910895CF93DF93382F2091090129
:10047000822F827021FF1EC0A32FB92F30E080E0B1
:1004800090E0E8ECF0E0CEECD0E0AC014756554C03
:10049000208122234CF001964817590759F18133E6
:1004A00025E79207A8F328C028813F5F2D933D30B0
:1004B00061F724C0A32FB92F60E020E030E0E0EC2A
:1004C000F0E0C6ECD0E0A9014756554C9081992345
:1004D00054F02F5F3F4F4217530789F0213395E7C0
:1004E0003907A0F30CC098816F5F9D936D3059F769
:1004F0008DE005C080E003C080E001C08DE0DF91A9
:10050000CF9108958091090181FF13C0E8ECF0E0DC
:10051000808185FFFDCF809175028093CE00E8EC4D
:10052000F0E0808185FFFDCF809176028093CE0040
:100530000895E0ECF0E0808185FFFDCF80917502A9
:100540008093C600E0ECF0E0808185FFFDCF8091D4
:1005500076028093C6000895FC01DB0113968C910E
:100560001397808312968C911297818311968C91A8
:10057000119782838C9183830895FC01208130E060
:10058000322F22278181A901482BCA010895FC013D
:10059000208130E0322F22278181A901482BCA0116
:1005A0000895E5E7F2E08FEF808381830895442387
:1005B00049F0E5E7F2E0208130E0322F2227418147
:1005C000242B02C02FEF3FEF16161706C4F4FC01D0
:1005D000680F791F9191392748E050E033233CF4AC
:1005E000220F331F81E2282780E1382702C0220F23
:1005F000331F4150510991F7E617F70759F7E5E71F
:10060000F2E0308321830895CF93DF93EC0141E042
:1006100061E070E00E94D702E5E7F2E08081898323
:1006200081818A838091090181FF12C0DE01AE01C0
:100630004D5F5F4FE8ECF0E02EEC30E0908195FFED
:10064000FDCF8D91E90188834A175B07B9F711C087
:10065000DE01AE014D5F5F4FE0ECF0E026EC30E0F4
:10066000908195FFFDCF8D91E9018883A417B5078F
:10067000B9F7DF91CF910895CF93DF93EC0141E07B
:1006800064E070E00E94D702E5E7F2E080818C83AD
:1006900081818D838091090181FF12C0DE01AE014D
:1006A0004A5F5F4FE8ECF0E02EEC30E0908195FF80
:1006B000FDCF8D91E90188834A175B07B9F711C017
:1006C000DE01AE014A5F5F4FE0ECF0E026EC30E087
:1006D000908195FFFDCF8D91E9018883A417B5071F
:1006E000B9F7DF91CF910895FB012181FC012083AF
:1006F000FB012081FC012183FA012181FC0122837D
:10070000FA012081FC0123830E943C0308950E948A
:1007100074030895CF93DF93EC0141E06CE070E047
:100720000E94D702E5E7F2E080818C8781818D8786
:100730008091090181FF12C0DE01AE01425F5F4F6F
:10074000E8ECF0E02EEC30E0908195FFFDCF8D914C
:10075000E90188834A175B07B9F711C0DE01AE01D2
:10076000425F5F4FE0ECF0E026EC30E0908195FFD7
:10077000FDCF8D91E9018883A417B507B9F7DF9103
:10078000CF910895CF92DF92EF92FF920F931F9334
:10079000CF93DF93FC01E701DB0111968C91119758
:1007A00080838C918183DA0111968C9111978283D9
:1007B0008C918383D90111968C91119784838C91AC
:1007C0008583D80111968C91119786838C918783AC
:1007D0008981808788818187D60111968C911197B4
:1007E00082878C918387CF010E948A03DF91CF910A
:1007F0001F910F91FF90EF90DF90CF900895EF92AF
:10080000FF920F931F93CF93DF93EC017A0189013D
:100810000E94AC02B701CE0104960E94AC02B8015E
:10082000CE0108960E94AC0241E06CE070E0CE017F
:100830000E94D702E5E7F2E080818C8781818D8775
:100840008091090181FF11C0DE019E01225F3F4FAF
:10085000E8ECF0E0CEECD0E0908195FFFDCF8D91FB
:1008600088832A173B07C1F711C0DE01AE01425F42
:100870005F4FE0ECF0E026EC30E0908195FFFDCF9B
:100880008D91E9018883A417B507B9F7DF91CF915E
:100890001F910F91FF90EF90089540E00E94D702C2
:1008A000089580917702833060F01092770261E0C2
:1008B00070E088E792E00E944D041092020281E00D
:1008C000089580E008950F931F93CF93DF938C01D9
:1008D000EB0188E792E00E944D04F801EC0FFD1F48
:1008E000908180917502981308C081E021819091D8
:1008F0007602291719F080E001C080E0DF91CF91E6
:100900001F910F91089580917702833098F0109293
:10091000770261E070E088E792E00E946304882338
:1009200059F080E48093780288E792E00E94040303
:1009300083E0089581E0089582E00895AF92BF9228
:10094000CF92DF92EF92FF920F931F93CF93DF939B
:10095000809177028431A0F11092770262E170E019
:1009600088E792E00E946304882361F1C8E7D2E03F
:10097000EF84F12CFE2CEE248E85E82AF092010201
:10098000E0920002C988D12CDC2CCC248889C82AAA
:10099000D0927402C0927302A12CB12C05E812E02F
:1009A00021E832E04DE752E069E772E08BEB92E03C
:1009B0000E9480138883CE010E94040383E003C059
:1009C00081E001C082E0DF91CF911F910F91FF90F4
:1009D000EF90DF90CF90BF90AF900895CF92DF92CD
:1009E000EF92FF920F931F93CF93DF938091770243
:1009F0008D3060F1109277026BE070E088E792E052
:100A00000E946304882321F1C09182028C2F83709D
:100A1000833001F1D09181028BEB92E00E94581358
:100A2000C0907302D0907402E0900002F090010236
:100A30000DE712E029E732E04C2F6D2F80E992E0BC
:100A40000E94F4110E94820283E005C081E003C08D
:100A500082E001C082E0DF91CF911F910F91FF9062
:100A6000EF90DF90CF900895CF92DF92EF92FF92B8
:100A70000F931F9380917702833030F110927702A9
:100A800061E070E088E792E00E9463048823F1F05F
:100A90000E94440C0F2EF9E5CF2EF2E0DF2EF02D50
:100AA0000F2EFBE5EF2EF2E0FF2EF02D0DE512E00C
:100AB0002FE532E041E652E063E672E088E792E03B
:100AC0000E94C20383E003C081E001C082E01F9165
:100AD0000F91FF90EF90DF90CF9008958091770273
:100AE0008330B0F01092770261E070E088E792E026
:100AF0000E946304882371F08BEB92E00E945813EC
:100B000080E992E00E94B2120E94820283E008957E
:100B100081E0089582E00895809177028F3008F493
:100B200050C0109277026DE070E088E792E00E947A
:100B30006304882309F447C0E8E7F2E02181828159
:100B400090E0A0E0B0E0DC0199278827B22B248157
:100B5000822B2381922B80936D0290936E02A0933F
:100B60006F02B09370022581868190E0A0E0B0E032
:100B7000DC0199278827B22B2085822B2781922B95
:100B80008093690290936A02A0936B02B0936C0207
:100B90002185828590E0A0E0B0E0DC0199278827DC
:100BA000B22B2485822B2385922B80936502909310
:100BB0006602A0936702B09368020E94820283E0FB
:100BC000089581E0089582E008958091770283304E
:100BD000B0F01092770261E070E088E792E00E9446
:100BE0006304882371F025E632E049E652E06DE6C1
:100BF00072E088E792E00E94FF0383E0089581E0BD
:100C0000089582E00895AF92BF92CF92DF92EF9263
:100C1000FF920F931F9380917702843008F440C0B5
:100C20001092770262E070E088E792E00E9463042D
:100C30008823C1F1809179028823B1F0AA24A3947A
:100C4000B12CC12CD12CE12CF12C00E010E020E0E3
:100C500030E040E050E060E070E08BEB92E00E941A
:100C600080138093780216C06894AA24A1F8B12C4E
:100C7000C12CD12CE12CF12C00E010E020E030E080
:100C800040E050E060E070E08BEB92E00E94801367
:100C90008093780288E792E00E94040383E003C017
:100CA00081E001C082E01F910F91FF90EF90DF90F3
:100CB000CF90BF90AF900895AF92BF92CF92DF9246
:100CC000EF92FF920F931F9380917702843008F484
:100CD00042C01092770262E070E088E792E00E94E2
:100CE00063048823D1F1809179028823C1F00F2E0B
:100CF000F3E0AF2EB12CF02DC12CD12CE12CF12C36
:100D000000E010E020E030E040E050E060E070E023
:100D10008BEB92E00E9480138093780216C0689457
:100D2000AA24A2F8B12CC12CD12CE12CF12C00E08A
:100D300010E020E030E040E050E060E070E08BEB5D
:100D400092E00E9480138093780288E792E00E94EC
:100D5000040383E003C081E001C082E01F910F9192
:100D6000FF90EF90DF90CF90BF90AF900895AF923B
:100D7000BF92CF92DF92EF92FF920F931F938091D9
:100D80007702843008F443C01092770262E070E08A
:100D900088E792E00E9463048823D9F18091790268
:100DA0008823C1F00F2EF5E0AF2EB12CF02DC12C11
:100DB000D12CE12CF12C00E010E020E030E040E00C
:100DC00050E060E070E08BEB92E00E948013809333
:100DD000780217C00F2EF6E0AF2EB12CF02DC12CEB
:100DE000D12CE12CF12C00E010E020E030E040E0DC
:100DF00050E060E070E08BEB92E00E948013809303
:100E0000780288E792E00E94040383E003C081E057
:100E100001C082E01F910F91FF90EF90DF90CF9083
:100E2000BF90AF90089580917702833030F1109297
:100E3000770261E070E088E792E00E946304882313
:100E4000F1F080E992E00E94D612882321F081E03F
:100E5000809378020CC080E992E00E94D912882326
:100E600021F082E08093780202C01092780288E735
:100E700092E00E94040383E0089581E0089582E0F7
:100E800008950E9463048823A9F08091090181FFDD
:100E900009C0E8ECF0E0808185FFFDCF81E0809320
:100EA000CE000895E0ECF0E0808185FFFDCF81E089
:100EB0008093C600089564E670E08BEB92E00E9498
:100EC000151380E992E00E94ED110895AF92BF9250
:100ED000CF92DF92EF92FF920F931F93CF93DF9306
:100EE0001F92CDB7DEB7442309F443C0E32EB22EE0
:100EF000042FF62E182F0E94A90A81113CC08F2DB5
:100F00000E94430B811139C085E38A95F1F70000F7
:100F1000812F81600E94A90A811131C0CB2CDE2C67
:100F2000F02EA12CB12CE12C10E001501109E3941A
:100F3000A016B10651F4CE0101960E94820B8111D8
:100F400020C08981F601808309C0CE0101960E94EC
:100F5000640B811118C08981F6018083FFEFAF1AFD
:100F6000BF0A8FEFC81AD80AFE10E1CF0E94320BD9
:100F70000BC0F12C09C0F12C07C0F12C05C0F12CDD
:100F800003C0F12C01C0F12C8F2D0F90DF91CF9178
:100F90001F910F91FF90EF90DF90CF90BF90AF9097
:100FA00008959A0141E00E9466070895EF92FF922A
:100FB0000F931F93CF93DF934423C9F07901142F2C
:100FC000C62F0E94A90A8C2F0E94430BE7014FEF06
:100FD000410F042F10E00F5F1F4F0E0D1F1D899151
:100FE0000E94430BC017D107D1F70E94320BDF914B
:100FF000CF911F910F91FF90EF900895CF93DF93C2
:101000001F92CDB7DEB749839E012F5F3F4F41E06E
:101010000E94D6070F90DF91CF910895EF92FF9233
:101020000F931F93CF93DF931F92CDB7DEB7222389
:1010300051F17801022F142FAE014F5F5F4F0E94D4
:10104000D107882309F1412F50E0401B51094F5F20
:101050005F4F21E030E002C0220F331F0A95E2F714
:1010600021503109042E02C0220F331F0A94E2F7E7
:101070009981292330E002C0359527954A95E2F7FA
:10108000F701208301C080E00F90DF91CF911F9185
:101090000F91FF90EF900895FF920F931F93CF93BE
:1010A000DF931F92CDB7DEB7F42E8901AE014F5FFB
:1010B0005F4F0E94D10721E030E002C0220F331FB2
:1010C000FA94E2F799812923F80120830F90DF91A8
:1010D000CF911F910F91FF900895DF92EF92FF92B1
:1010E0000F931F93CF93DF931F92CDB7DEB72223C9
:1010F00089F1122FF42ED62EE82E1982AE014F5F01
:101100005F4F0E94D107882329F12F2D30E0211B4A
:1011100031092F5F3F4F81E090E002C0880F991F97
:101120001A95E2F70197022E02C0880F991F0A94C0
:10113000E2F710E002C0000F111F2A95E2F7482FD6
:101140004095998149238023482B49836D2D8E2D0D
:101150000E94FE070F90DF91CF911F910F91FF909A
:10116000EF90DF900895EF92FF920F931F93CF932C
:10117000DF931F92CDB7DEB7182F062FF42EE22E85
:10118000AE014F5F5F4F0E94D107EE2051F041E06A
:1011900050E002C0440F551FFA94E2F78981482BB2
:1011A0000AC041E050E002C0440F551FFA94E2F734
:1011B0004095898148234983602F812F0E94FE0733
:1011C0000F90DF91CF911F910F91FF90EF900895B5
:1011D00020E046E06BE60E94B308089521E046E077
:1011E0006BE60E94B30808950F931F93CF93DF938C
:1011F000CFEED2E018828E0126E046E065E70E943D
:101200000E08988181E0943309F080E0DF91CF915E
:101210001F910F9108950F93CF93C82F0E949D0A9D
:1012200025E32A95F1F700008FEF91EE24E081503D
:1012300090402040E1F700C000008C2F0E94E80899
:101240008FE39CE90197F1F700C0000001E023E083
:1012500042E06BE68C2F0E946D0803E023E042E041
:101260006AE18C2F0E946D0844E069E18C2F0E9496
:10127000FE0722E044E06BE18C2F0E946D0800E045
:1012800022E044E06CE18C2F0E946D08CF910F9119
:1012900008950E94A60A08958F929F92AF92BF92DE
:1012A000CF92DF92EF92FF920F931F93CF93DF9332
:1012B0004B015A01E9012FEE32E04EE06BE30E9450
:1012C0006607EFEEF2E02081818190E0922BD4015D
:1012D0008D939C932281838190E0922BD5018D93F5
:1012E0009C932481858190E0922B9983888320852B
:1012F000818590E0922BD8018D939C9322858385E4
:1013000090E0922BD7018D939C932485858590E066
:10131000922BF60191838083DF91CF911F910F91E2
:10132000FF90EF90DF90CF90BF90AF909F908F9005
:101330000895EF92FF920F931F93CF93DF937B015A
:101340008A01E9012FEE32E046E06BE30E94660776
:101350008630C1F4EFEEF2E02081818190E0922BA3
:10136000D7018D939C932281838190E0922BD801A9
:101370008D939C932481858190E0922B998388831F
:1013800080E001C081E0DF91CF911F910F91FF902C
:10139000EF9008952F923F924F925F926F927F92BB
:1013A0008F929F92AF92BF92CF92DF92EF92FF9275
:1013B0000F931F93CF93DF93CDB7DEB72E970FB662
:1013C000F894DEBF0FBECDBF3B014A015901280191
:1013D0001701DE86CD861A8219821C821B821E822C
:1013E0001D8218861F821A8619861C861B869E01FE
:1013F000255F3F4F6901FE0139967F018E01095F2C
:101400001F4F26503109AE014D5F5F4FBE016F5F28
:101410007F4F0E944C0969817A81072E000C880B4E
:10142000990B0E94E41420E030E040E858E30E9469
:101430007015F30160837183828393836B817C8158
:10144000072E000C880B990B0E94E41420E030E07A
:1014500040E858E30E947015F40160837183828331
:1014600093836D817E81072E000C880B990B0E945F
:10147000E41420E030E040E858E30E947015F501E4
:1014800060837183828393836F817885665D7F4FEC
:10149000072E000C880B990B0E94E41423E333E31E
:1014A00043E851E40E947014F201608371838283E7
:1014B000938369857A8569507109072E000C880B22
:1014C000990B0E94E41423E333E343E851E40E94C0
:1014D0007014F10160837183828393836B857C85B3
:1014E000635E7F4F072E000C880B990B0E94E4145B
:1014F00023E333E343E851E40E947014ED85FE8555
:1015000060837183828393832E960FB6F894DEBF37
:101510000FBECDBFDF91CF911F910F91FF90EF9044
:10152000DF90CF90BF90AF909F908F907F906F9003
:101530005F904F903F902F9008951092B90088E4EB
:101540008093B80084E08093BC0008951092BC00A2
:10155000089594EA9093BC004FEF50E060E070E093
:10156000ECEBF0E09081992334F04150510961098E
:101570007109C0F704C0452B462B472B41F19091D0
:10158000B900987F983011F0903119F58093BB0025
:1015900084E88093BC008FEF90E0A0E0B0E0ECEB3B
:1015A000F0E0208122232CF00197A109B109C8F7AE
:1015B00004C0892B8A2B8B2B71F09091B900987FF6
:1015C000983159F081E0903449F480E0089581E049
:1015D000089581E0089581E0089580E00895CF9313
:1015E000DF93ECEBF0E044EAA9EBB0E0CBEBD0E02A
:1015F00054E864E9408320E030E09081992334F09E
:101600002F5F3F4F211591E03907B9F79C91987FE3
:10161000983011F0903171F78883508320E030E0EA
:101620009081992334F02F5F3F4F211591E03907C6
:10163000B9F79C91987F903211F0983569F46083E6
:1016400020E030E0908194FFD5CF2F5F3F4F2115F0
:1016500091E03907B9F7CECFDF91CF9108950E947D
:10166000A90A089584E98093BC0020E030E0ECEB07
:10167000F0E0808184FF06C02F5F3F4F211581E09D
:101680003807B9F708958093BB0084E88093BC00C5
:101690008FEF90E0A0E0B0E0ECEBF0E020812223BF
:1016A0002CF00197A109B109C8F704C0892B8A2B36
:1016B0008B2B41F09091B900987F81E0983219F41A
:1016C00080E0089581E00895DC0194EC9093BC00E3
:1016D0004FEF50E060E070E0ECEBF0E09081992398
:1016E00034F04150510961097109C0F704C0452B1C
:1016F000462B472B29F08091BB008C9380E0089506
:1017000081E00895DC0194E89093BC004FEF50E035
:1017100060E070E0ECEBF0E09081992334F0415010
:10172000510961097109C0F704C0452B462B472BAD
:1017300029F08091BB008C9380E0089581E00895AA
:101740008BE4089580917702833098F010927702AD
:1017500061E070E088E792E00E946304882359F01A
:1017600081E08093780288E792E00E94040383E09E
:10177000089581E0089582E008952C9A08952C98A8
:101780000895E2E0F1E08081806280830895E2E0E4
:10179000F1E080818F7D80830895E2E0F1E0808137
:1017A000806480830895E2E0F1E080818F7B808314
:1017B0000895CF93C6E0C15021F10E9449098FE1FD
:1017C0009EE40197F1F700C0000080ED0E940B0934
:1017D0008FE19EE40197F1F700C0000082ED0E94C6
:1017E0000B098FE19EE40197F1F700C0000080ED46
:1017F0000E94F4088823F9F282ED0E94F4088823FD
:10180000D1F2CF910895AF92BF92CF92DF92EF9233
:10181000FF921F93CF93DF9300D000D0CDB7DEB7F8
:10182000182F5B016A0179019E012B5F3F4FAE01CA
:101830004D5F5F4FBE016F5F7F4F812F0E949909FF
:10184000882319F00E94D90BEFCF89819A81F50185
:10185000918380838B819C81F601918380838D812C
:101860009E81F7019183808326960FB6F894DEBFA0
:101870000FBECDBFDF91CF911F91FF90EF90DF9012
:10188000CF90BF90AF9008952FE532E041E652E04F
:1018900063E672E080ED0E94030C29E532E04BE53F
:1018A00052E06DE572E082ED0E94030C0895CF9343
:1018B000DF93809A869A0C9A819A879A0E9A579A01
:1018C000829A0A9A5F988A981298249AE1E0F1E045
:1018D000808180628083808180648083C1E9D0E0E0
:1018E000888182608883A0E9B0E08C9182608C93CB
:1018F00088818861888320E43CE9309397002093B5
:1019000096008C9180688C9380E99BE0909399007D
:10191000809398006B9AC1EAD0E0888182608883C6
:10192000A0EAB0E08C9182608C9388818861888382
:101930003093A7002093A6008C9180688C9388EB4D
:101940009BE09093A9008093A800808188608083A9
:101950000E94D90BE1E8F0E080818460808382EE10
:1019600094E09093890080938800808188608083D0
:10197000EFE6F0E0808182608083E1E2F1E0808147
:101980008860808380818160808380E491E090938F
:10199000290180932801E3E7F0E080818260808361
:1019A0007894DF91CF9108951F920F920FB60F9206
:1019B00011240BB60F922F933F934F935F936F9326
:1019C0007F938F939F93AF93BF93CF93DF93EF93C7
:1019D000FF9388988E98149880E992E00E94D6121E
:1019E000882309F472C280E992E00E94DC12882305
:1019F00009F432C180E992E00E94D912811104C039
:101A000080E992E00E94AE1280E992E00E94D41236
:101A1000FC01808191819093080380930703848166
:101A2000958190930603809305038085918590931B
:101A30000403809303038091070390910803892B8B
:101A400019F4109250024AC024852170220F81B3EC
:101A50008D7F822B81BB8091070390910803805575
:101A600091099093020380930103609107037091A1
:101A7000080380E29EE40E945414609350022223E3
:101A8000B9F02091500280916D0290916E02A09168
:101A90006F02B0917002820F911DA11DB11D809344
:101AA0006D0290936E02A0936F02B093700216C005
:101AB0002091500280916D0290916E02A0916F0270
:101AC000B0917002821B9109A109B10980936D0246
:101AD00090936E02A0936F02B09370028091050301
:101AE00090910603892B19F410924F0250C024855F
:101AF00030E0359527953695322F22273795279553
:101B000081B38F77822B81BB80910503909106036F
:101B100080559109909300038093FF026091050323
:101B20007091060380E29EE40E94541460934F0279
:101B30002223B9F020914F028091690290916A02AC
:101B4000A0916B02B0916C02820F911DA11DB11D7D
:101B50008093690290936A02A0936B02B0936C0227
:101B600016C020914F028091690290916A02A09163
:101B70006B02B0916C02821B9109A109B10980939B
:101B8000690290936A02A0936B02B0936C028091F9
:101B9000030390910403892B19F410924E024FC055
:101BA000248522FB222720F92295220F220F207C58
:101BB00082B18F7B822B82B98091030390910403C1
:101BC000805591099093FE028093FD02609103037A
:101BD0007091040380E29EE40E94541460934E02CC
:101BE0002223B9F020914E02809165029091660205
:101BF000A0916702B0916802821B9109A109B10905
:101C00008093650290936602A0936702B093680286
:101C100016C020914E028091650290916602A091BB
:101C20006702B0916802820F911DA11DB11D8093C2
:101C3000650290936602A0936702B093680285855F
:101C400096859093990080939800878590899093CA
:101C5000A9008093A80076C280E992E00E94D91280
:101C6000882359F080E992E00E94B212109250024B
:101C700010924F0210924E0265C280E992E00E94DB
:101C8000D212FC0180819181909308038093070315
:101C900084819581909306038093050380859185C7
:101CA00090930403809303038091070390910803AA
:101CB000892B19F4109250024AC024852170220FFA
:101CC00081B38D7F822B81BB8091070390910803A4
:101CD000805591099093020380930103609107035B
:101CE0007091080380E29EE40E94541460935002B5
:101CF0002223B9F02091500280916D0290916E02E2
:101D0000A0916F02B0917002820F911DA11DB11DB3
:101D100080936D0290936E02A0936F02B093700255
:101D200016C02091500280916D0290916E02A09198
:101D30006F02B0917002821B9109A109B1098093D1
:101D40006D0290936E02A0936F02B0937002809127
:101D5000050390910603892B19F410924F0250C08D
:101D6000248530E0359527953695322F22273795F3
:101D7000279581B38F77822B81BB8091050390914A
:101D8000060380559109909300038093FF026091B0
:101D900005037091060380E29EE40E945414609350
:101DA0004F022223B9F020914F0280916902909155
:101DB0006A02A0916B02B0916C02820F911DA11D6D
:101DC000B11D8093690290936A02A0936B02B09355
:101DD0006C0216C020914F028091690290916A02B4
:101DE000A0916B02B0916C02821B9109A109B1090B
:101DF0008093690290936A02A0936B02B0936C0285
:101E00008091030390910403892B19F410924E02E0
:101E10004FC0248522FB222720F92295220F220F72
:101E2000207C82B18F7B822B82B9809103039091B9
:101E30000403805591099093FE028093FD02609106
:101E400003037091040380E29EE40E9454146093A3
:101E50004E022223B9F020914E02809165029091AA
:101E60006602A0916702B0916802821B9109A109E4
:101E7000B1098093650290936602A0936702B093C4
:101E8000680216C020914E02809165029091660210
:101E9000A0916702B0916802820F911DA11DB11D32
:101EA0008093650290936602A0936702B0936802E4
:101EB0008585968590939900809398008785908971
:101EC0009093A9008093A8003DC18BEB92E00E9403
:101ED0005E13882339F01092500210924F02109234
:101EE0004E0230C18BEB92E00E943113EC018989E4
:101EF0009A89892B09F026C18BEB92E00E943F134F
:101F00008881998190930803809307038C819D8138
:101F10009093060380930503888599859093040325
:101F2000809303038091070390910803892B19F490
:101F3000109250024AC02C852170220F81B38D7FF0
:101F4000822B81BB809107039091080380559109F2
:101F5000909302038093010360910703709108033B
:101F600080E29EE40E945414609350022223B9F050
:101F70002091500280916D0290916E02A0916F02AB
:101F8000B0917002820F911DA11DB11D80936D0251
:101F900090936E02A0936F02B093700216C02091CE
:101FA000500280916D0290916E02A0916F02B091EB
:101FB0007002821B9109A109B10980936D0290936F
:101FC0006E02A0936F02B09370028091050390910E
:101FD0000603892B19F410924F0250C02C8530E073
:101FE000359527953695322F22273795279581B33A
:101FF0008F77822B81BB80910503909106038055DA
:102000009109909300038093FF0260910503709102
:10201000060380E29EE40E94541460934F02222340
:10202000B9F020914F028091690290916A02A091CB
:102030006B02B0916C02820F911DA11DB11D8093A6
:10204000690290936A02A0936B02B0936C0216C06F
:1020500020914F028091690290916A02A0916B02D7
:10206000B0916C02821B9109A109B10980936902A8
:1020700090936A02A0936B02B0936C028091030369
:1020800090910403892B19F410924E024FC02C85B5
:1020900022FB222720F92295220F220F207C82B1D9
:1020A0008F7B822B82B9809103039091040380552A
:1020B00091099093FE028093FD0260910303709159
:1020C000040380E29EE40E94541460934E02222393
:1020D000B9F020914E028091650290916602A09124
:1020E0006702B0916802821B9109A109B10980932E
:1020F000650290936602A0936702B093680216C0CF
:1021000020914E028091650290916602A091670233
:10211000B0916802820F911DA11DB11D80936502CF
:1021200090936602A0936702B09368028D859E85A6
:1021300090939900809398008F8598899093A90037
:102140008093A80081E080930903FF91EF91DF91D4
:10215000CF91BF91AF919F918F917F916F915F913F
:102160004F913F912F910F900BBE0F900FBE0F908C
:102170001F9018951F920F920FB60F9211242F9354
:102180003F938F939F9380915002882341F18091D8
:1021900001039091020388979093020380930103B7
:1021A00080910103909102039923CCF491B381E0D3
:1021B000892781BB889B05C0809150028150809304
:1021C0005002809107039091080320910103309100
:1021D0000203820F931F9093020380930103809167
:1021E0004F02882341F18091FF029091000388976C
:1021F000909300038093FF028091FF02909100036F
:102200009923CCF491B380E4892781BB8E9B05C0D0
:1022100080914F02815080934F02809105039091ED
:1022200006032091FF0230910003820F931F9093C9
:1022300000038093FF0280914E02882341F1809138
:10224000FD029091FE0288979093FE028093FD021A
:102250008091FD029091FE029923CCF492B180E12D
:10226000892782B9149B05C080914E0281508093CA
:102270004E0280910303909104032091FD0230915E
:10228000FE02820F931F9093FE028093FD029F91A6
:102290008F913F912F910F900FBE0F901F90189527
:1022A0000E94870181E08093090309E011E00F2E6D
:1022B000F0ECCF2ED12CF02D0F2EF6EC8F2E912C92
:1022C000F02D0F2EF8ECEF2EF12CF02D0F2EFEEC52
:1022D000AF2EB12CF02D80910903882309F44FC053
:1022E000109209038BEB92E00E945E13882319F091
:1022F0000E94BF0B41C08BEB92E00E943113EC01B6
:1023000089899A89892BC1F1F801808181FF13C0E5
:10231000F701808188230CF580917702F501908187
:10232000E82FF0E0E858FD4F90838731B0F48F5FDD
:102330008093770212C0F6018081882374F4809123
:102340007702F4019081E82FF0E0E858FD4F908388
:10235000873118F48F5F809377028BEB92E00E94B5
:102360003F13E989FA89EE0FFF1FED53FD4F0190EE
:10237000F081E02D1995B6CF0E94CE00ACCFF801C8
:10238000808181FF15C0F701808188230CF0A3CFE5
:1023900080917702F5019081E82FF0E0E858FD4F39
:1023A0009083873108F097CF8F5F8093770293CF28
:1023B000F601808188230CF08ECF80917702F401A2
:1023C0009081E82FF0E0E858FD4F9083873108F0C6
:1023D00082CF8F5F809377027ECFFC0110821182C3
:1023E0008FEF8383148208958F929F92AF92BF9252
:1023F000CF92DF92EF92FF920F931F93CF93DF93D1
:10240000EC01A62EB42E49018C818130C9F4EB81F8
:10241000F0E0CF01880F991F880F991FE80FF91F6F
:10242000ED5FFD4FA081B1812C9181E090E00280B1
:1024300002C0880F991F0A94E2F7809582238C933B
:102440000E94A00B9BEA899F812D11248695A816D6
:1024500008F077C0AB8281E088832B2D23704B2D51
:1024600050E0B3FA882780F98C83B4FA882780F982
:102470008A8330E062E070E0621B730B8B2D847006
:1024800090E0062E02C0959587950A94E2F7898B15
:10249000FB8AEA8ADD8ACC8A40955095447055279C
:1024A00002C0559547956A95E2F74CA3FEA2EDA2AE
:1024B000D8A6CFA28CE07E0195E0E90EF11CD701F1
:1024C000E82F1D92EA95E9F7DE015896FD01119279
:1024D0008A95E9F7220F331F220F331FF401408141
:1024E000518162817381F701E20FF31F40835183B1
:1024F00062837383F8014081518162817381FD01A0
:10250000E20FF31F40835183628373838C8188239E
:10251000C1F0EB81F0E0CF01880F991F880F991F60
:10252000E80FF91FED5FFD4FA081B1812C9181E093
:1025300090E0028002C0880F991F0A94E2F7822B74
:102540008C93DF91CF911F910F91FF90EF90DF90CF
:10255000CF90BF90AF909F908F90089521E0FC01A5
:1025600021830895FC011082118284818130C9F495
:10257000E381F0E0CF01880F991F880F991FE80FC2
:10258000F91FED5FFD4FA081B1812C9181E090E0BA
:10259000028002C0880F991F0A94E2F78095822377
:1025A0008C9308950596089548960895FC018081BE
:1025B0000895FC0181810895DC0112962C911297F7
:1025C0002223D1F01396EC91F0E0CF01880F991FF0
:1025D000880F991FE80FF91FED5FFD4FA081B181B2
:1025E0008C9190E0028002C0959587950A94E2F75D
:1025F000B1E08B2781700895DC011396EC91F0E037
:10260000CF01880F991F880F991FE80FF91FED5F01
:10261000FD4FA081B1818C9190E0028002C0959520
:1026200087950A94E2F7817008950F931F93CF93D3
:10263000DF93EC018B0183E1282F269FC001279FA8
:10264000900D11240E94DD159F838E831B821A82B8
:102650001D821C8219830883DF91CF911F910F91F6
:102660000895FC012481358143E1429FC001439FCD
:10267000900D112426813781820F931F0895FC014C
:102680002481358143E1429FC001439F900D112475
:1026900046815781840F951F2F5F3F4F35832483D9
:1026A000408151812417350710F015821482089556
:1026B000FC0113821282158214820895FC0181E0CC
:1026C00042815381248135814217530709F080E00C
:1026D0000895FC012281338184819581281B390B67
:1026E0002F3F8FEF380751F0408151814150510900
:1026F00081E04217530719F080E0089581E00895C2
:102700004F925F926F927F928F929F92AF92BF9201
:10271000CF92DF92EF92FF920F931F93CF93DF93AD
:10272000EC014B013A0129010E946913811180C01B
:10273000F40140815181628173818A819B8123E10F
:10274000289FF001299FF00D11248E819F81E80FB1
:10275000F91F4083518362837383F301608071802A
:10276000828093804A815B81249FC001259F900DC8
:102770001124EE81FF81E80FF91F64827582868241
:102780009782F2014081518162817381EA81FB81EC
:102790002E9FC0012F9F900D1124EE81FF81E80F25
:1027A000F91F4087518762877387F80130814A811A
:1027B0005B81249FC001259F900D1124EE81FF8134
:1027C000E80FF91F34874A815B81249FC001259F50
:1027D000900D1124EE81FF81E80FF91FF686E58642
:1027E0004A815B81249FC001259F900D1124EE81B9
:1027F000FF81E80FF91FD08AC7864A815B81249F39
:10280000C001259F900D1124EE81FF81E80FF91F73
:10281000B28AA18A8A819B8101969B838A832881BF
:1028200039818217930730F01B821A8281E003C03E
:1028300080E001C081E0DF91CF911F910F91FF9067
:10284000EF90DF90CF90BF90AF909F908F907F9050
:102850006F905F904F900895CF93DF93EC010E94AB
:102860006913811119C08A819B8143E1489F9001BE
:10287000499F300D11244E815F81240F351F019631
:102880009B838A83488159818417950740F01B8276
:102890001A82822F932F05C080E090E002C0822F21
:1028A000932FDF91CF910895AA1BBB1B51E107C065
:1028B000AA1FBB1FA617B70710F0A61BB70B881FD0
:1028C000991F5A95A9F780959095BC01CD0108955F
:1028D000EE0FFF1F881F8BBF0790F691E02D199414
:1028E0000E9484140C9436150E942F1558F00E94F3
:1028F000281540F029F45F3F29F00C941F15511161
:102900000C946A150C9425150E94471568F39923B9
:10291000B1F3552391F3951B550BBB27AA276217DB
:102920007307840738F09F5F5F4F220F331F441FE8
:10293000AA1FA9F335D00E2E3AF0E0E832D091501C
:102940005040E695001CCAF72BD0FE2F29D0660F09
:10295000771F881FBB1F261737074807AB07B0E84C
:1029600009F0BB0B802DBF01FF2793585F4F3AF052
:102970009E3F510578F00C941F150C946A155F3F2B
:10298000E4F3983ED4F3869577956795B795F795D8
:102990009F5FC9F7880F911D9695879597F90895C0
:1029A000E1E0660F771F881FBB1F6217730784075C
:1029B000BA0720F0621B730B840BBA0BEE1F88F76B
:1029C000E0950895E89409C097FB3EF490958095B2
:1029D000709561957F4F8F4F9F4F9923A9F0F92FE5
:1029E00096E9BB279395F695879577956795B79563
:1029F000F111F8CFFAF4BB0F11F460FF1BC06F5F49
:102A00007F4F8F4F9F4F16C0882311F096E911C05A
:102A1000772321F09EE8872F762F05C0662371F07B
:102A200096E8862F70E060E02AF09A95660F771F8F
:102A3000881FDAF7880F9695879597F9089597F983
:102A40009F6780E870E060E008959FEF80EC089554
:102A500000240A941616170618060906089500247D
:102A60000A9412161306140605060895092E0394F7
:102A7000000C11F4882352F0BB0F40F4BF2B11F46B
:102A800060FF04C06F5F7F4F8F4F9F4F089557FDCA
:102A90009058440F551F59F05F3F71F04795880FCC
:102AA00097FB991F61F09F3F79F087950895121663
:102AB00013061406551FF2CF4695F1DF08C016160F
:102AC00017061806991FF1CF8695710561050894C0
:102AD0000895E894BB2766277727CB0197F90895D7
:102AE0000E9483150C9436150E94281538F00E9418
:102AF0002F1520F0952311F00C941F150C9425151B
:102B000011240C946A150E94471570F3959FC1F328
:102B1000950F50E0551F629FF001729FBB27F00D8B
:102B2000B11D639FAA27F00DB11DAA1F649F6627E0
:102B3000B00DA11D661F829F2227B00DA11D621F2F
:102B4000739FB00DA11D621F839FA00D611D221FE9
:102B5000749F3327A00D611D231F849F600D211DCD
:102B6000822F762F6A2F11249F5750409AF0F1F050
:102B700088234AF0EE0FFF1FBB1F661F771F881FB9
:102B800091505040A9F79E3F510580F00C941F15BD
:102B90000C946A155F3FE4F3983ED4F386957795DD
:102BA0006795B795F795E7959F5FC1F7FE2B880F5F
:102BB000911D9695879597F908950F931F93CF933D
:102BC000DF938230910510F482E090E0E0910C03F5
:102BD000F0910D0320E030E0A0E0B0E0309719F173
:102BE000408151810281138148175907C8F0841729
:102BF000950769F4109731F012960C93129713967B
:102C00001C9327C000930C0310930D0322C02115C1
:102C1000310519F04217530718F49A01BD01EF016D
:102C2000DF01F801DBCF21153105F9F0281B390B45
:102C30002430310580F48A819B816115710521F072
:102C4000FB019383828304C090930D0380930C0354
:102C5000FE01329644C0FE01E20FF31F819391936F
:102C600022503109398328833AC020910A033091D8
:102C70000B03232B41F420915302309154023093E3
:102C80000B0320930A032091510230915202211527
:102C9000310541F42DB73EB740915502509156028F
:102CA000241B350BE0910A03F0910B03E217F307A5
:102CB000A0F42E1B3F0B2817390778F0AC014E5FAC
:102CC0005F4F2417350748F04E0F5F1F50930B03DB
:102CD00040930A038193919302C0E0E0F0E0CF01BA
:102CE000DF91CF911F910F910895CF93DF930097BC
:102CF00009F481C0FC01329713821282A0910C0367
:102D0000B0910D03109781F420813181820F931FC0
:102D100020910A0330910B032817390751F5F093DE
:102D20000B03E0930A0367C0ED0120E030E0CE170B
:102D3000DF0740F44A815B819E0141155105F1F0A6
:102D4000EA01F5CFD383C28340815181840F951F5F
:102D5000C817D90759F488819981840F951F029665
:102D6000918380838A819B8193838283211531059E
:102D700029F4F0930D03E0930C033DC0E901FB83BC
:102D8000EA8349915991C40FD51FEC17FD0761F4EF
:102D900080819181840F951F0296E9019983888330
:102DA000828193819B838A83E0E0F0E012968D918B
:102DB0009C911397009719F0FD01DC01F7CF8D91DD
:102DC0009C9111979D012E5F3F4F820F931F209181
:102DD0000A0330910B032817390769F4309729F457
:102DE00010920D0310920C0302C013821282B09352
:102DF0000B03A0930A03DF91CF910895F894FFCFBE
:102E000001E00100010101010001000101200003B6
:102E100021002000052100200007210026000627B0
:102E200000260004270026000227002600002700B5
:102E3000320002330032000033000901060A0109A2
:102E400001040A010901020A012600052700010107
:082E50000100000E03800000E8
:00000001FF
